:0400000069EF00F0B4
:100018001980D8CF01F0E8CF02F0E0CF03F0FACF93
:1000280004F0FBCF05F0E9CF06F0EACF07F0E1CF07
:1000380008F0E2CF09F0D9CF0AF0DACF0BF0F3CF0E
:100048000CF0F4CF0DF0F6CF0EF0F7CF0FF0F8CF9D
:1000580010F0F5CF11F0F2A414D0F2940B0ED76E75
:10006800DC0ED66E17501810D8A406D0000E186EE5
:10007800010E176E838205D0000E186E000E176EE3
:10008800839211C0F5FF10C0F8FF0FC0F7FF0EC034
:10009800F6FF0DC0F4FF0CC0F3FF0BC0DAFF0AC077
:1000A800D9FF09C0E2FF08C0E1FF07C0EAFF06C0A8
:1000B800E9FF05C0FBFF04C0FAFF03C0E0FF02C070
:1000C800E8FF01C0D8FF199010009BEF00F0000E68
:1000D800156E000E146E0FD0000E166EC70E166445
:1000E80001D007D000F000F000F000F000F0162A70
:1000F800F5D7144A152A1250145C13501558D8B065
:100108001200EAD7720ED36E000E956E000E836E43
:100118008382010E136EF40E126E6BEC00F0839264
:10012800010E136EF40E126E6BEC00F0F1D7186A24
:0C013800176A19901992000186EF00F080
:020000040020DA
:08000000FFFFFFFFFFFFFFFF00
:020000040030CA
:0E000000080B1F1EFF8381FF0FC00FE00F4093
:00000001FF
